:020000040800F2
:1000000060060020A10100084F0B00088F060008C1
:100010004B0B0008EF030008031700080000000066
:100020000000000000000000000000006D12000849
:100030001505000800000000211100085D130008EC
:10004000BB010008BB010008BB010008BB010008A0
:10005000BB010008BB010008BB010008BB01000890
:10006000BB010008BB010008BB010008BB01000880
:10007000BB010008BB010008BB010008BB01000870
:10008000BB010008BB010008BB010008BB01000860
:10009000BB010008BB010008BB010008BB01000850
:1000A000BB010008BB010008BB010008BB01000840
:1000B000BB010008BB010008BB010008BB01000830
:1000C000BB010008BB010008BB010008BB01000820
:1000D000BB010008BB0100083D15000845150008DC
:1000E000BB010008BB010008BB010008BB01000800
:1000F000BB010008BB010008BB010008BB010008F0
:10010000BB010008BB010008BB010008BB010008DF
:10011000BB010008BB010008BB010008BB010008CF
:10012000BB010008BB010008BB010008BB010008BF
:10013000BB010008BB010008BB010008BB010008AF
:10014000BB010008BB010008BB010008BB0100089F
:10015000BB010008BB010008BB010008BB0100088F
:10016000BB010008BB010008BB010008BB0100087F
:10017000BB010008BB010008BB010008BB0100086F
:10018000BB010008BB010008DFF810D000F0BCF88C
:1001900000480047F51A0008AFF300806006002011
:1001A0000648804706480047FEE7FEE7FEE7FEE711
:1001B000FEE7FEE7FEE7FEE7FEE7FEE76D13000859
:1001C0008901000840EA01039B0703D009E008C940
:1001D000121F08C0042AFAD203E011F8013B00F80C
:1001E000013B521EF9D27047D2B201E000F8012B58
:1001F000491EFBD270470022F6E710B513460A46A7
:1002000004461946FFF7F0FF204610BD30B50546FD
:100210002A460B4612F8010B13F8014B08B1A04215
:10022000F8D01CB1002802D06D1CF1E7284630BD83
:10023000CAB2401E10F8011F8A4202D00029F9D12B
:1002400000207047421C10F8011B0029FBD1801AC6
:10025000704770B5064601F081FA046805460A2227
:100260000021304600F018F82C6070BD30B50B4608
:10027000014600202022012409E021FA02F59D42D6
:1002800005D303FA02F5491B04FA02F52844151EAA
:10029000A2F10102F1DC30BD2DE9F04791460F4695
:1002A00080460446002614F8015B2DB100F03EF8AC
:1002B0000068405DC007F6D12B2D02D02D2D18D03F
:1002C000641E4A463946204600F034F827B13968A2
:1002D000A14201D1C7F8008071054FF002040BD58F
:1002E0004042002803DD01F039FA0460A007BDE8B0
:1002F000F08746F48066E4E70028F8DA01F02EFA89
:1003000004606FF00040F2E7064C074D06E0E0683D
:1003100040F0010394E8070098471034AC42F6D34C
:10032000FFF736FF80260008A02600080048704727
:10033000682400082DE9F05F824600780027154602
:100340008B460AF10104B946302801D09DB113E073
:1003500014F8010B0127782803D0582801D045B1A3
:100360000AE00DB1102D07D10027102514F8010B5C
:1003700002E0082500E00A250026B0460EE005FB55
:10038000080005FB06F1012701EB10461FFA80F873
:10039000B6F5803F00D3B94614F8010B294600F0AA
:1003A00018F80028EBDABBF1000F05D00FB1641E7E
:1003B00000E05446CBF80040B9F1000F06D001F040
:1003C000CDF902210160C81EBDE8F09F48EA064051
:1003D000FAE73A2800D2303820F02002412A01D32F
:1003E000A2F13700884201D34FF0FF30704700BFC1
:1003F000FEE700001CB50220009000208DF80400EC
:1004000001208DF807006946014800F0C3F81CBDC3
:10041000000002401CB50220009001208DF804006D
:100420008DF806008DF8070002208DF8050069465A
:10043000014800F0AFF81CBD0000024010B50121DA
:10044000084600F06FFEFFF7E5FF01220221044895
:1004500000F018F90A2001F0BDFA002010BD0000DC
:10046000000002402DE9F04781468A46FFF7D2FF9F
:1004700000220221264800F005F9142001F0AAFA12
:1004800001220221224800F0FDF8FFF7B3FF1E20F1
:1004900001F0ACFA6421002001F0E6FA10B101206D
:1004A000BDE8F0876421012001F0DEFA08B10220E6
:1004B000F6E76421002001F0D7FA08B10320EFE746
:1004C00001F0ACFA044601F0A9FA054601F0A6FADB
:1004D000064601F0A3FA074601F0A0FA804660192B
:1004E00030443844C1B2414501D00420D8E704EB80
:1004F000840005EB40008AF8000007F07F0006EB5F
:10050000860100EB410089F800000020C8E70000E8
:1005100000000240704700000748006840F080700B
:10052000054908600020054948600846006840F019
:100530000100086070470000FCED00E0001000E0E2
:1005400010B50821104801F00DF818B10E4801F05F
:10055000CFF810BD40F225510B4801F010F880B1E2
:10056000094801F0C5F8C4B208480078B0F5FF7F2B
:1005700006DC06490878411C044A117004490C54F1
:1005800000BF00BFE5E70000004800400800002071
:100590004C000020F0B50A4600210023002400BFD3
:1005A0003DE0012505FA01F3156805EA03049C42C4
:1005B00034D105684F000326BE40B5430560157968
:1005C0004E00B5400668354305601579012D02D00F
:1005D0001579022D16D185684F000326BE40B5431C
:1005E000856055794E00B54086683543856045681D
:1005F00001268E40B5434560456896798E40B6B277
:1006000035434560C5684F000326BE40B543C5600D
:10061000D5794E00B540C6683543C560491C1029E0
:10062000BFD3F0BDF0B5002300244D07ED0E02FA54
:1006300005F3CE1000F1200555F826504E07F70EB1
:100640000F26BE40B543CF1000F1200646F82750D4
:10065000CE1000F1200555F8265045EA0304CE10CF
:1006600000F1200545F82640F0BD02460020136940
:100670000B400BB1012000E00020704742694A4066
:10068000426170470AB1018300E04183704700BFB7
:10069000FEE700004FF0FF300249086000200249E9
:1006A00008707047180000201C00002001480068F6
:1006B000704700001800002010B540F225512F4867
:1006C00000F05DFF002858D02C4801F011F82C49AB
:1006D000087008460078242803D1002029490870B2
:1006E0004BE027480078232835D100202549097898
:1006F0000F2902D22349097800E00F21224A5054E1
:1007000020480078002822DD00210122002012E08C
:100710001D4B1B5C302B03DB1B4B1B5C392B01DDA2
:1007200000220CE0184B1B5C303B01EB810403EB17
:100730004401431CD8B2134B1B789842E8DB00BF3E
:1007400022B1124801600120114B187000BF002037
:100750000C49087011E00B4800780F280AD20848AD
:100760000178084802780078401C064B187006484B
:10077000815402E000200349087010BD004400408D
:100780001D0000201E0000204C0200201800002048
:100790001C00002010B588B004460121084600F076
:1007A000C1FC0121480400F0CDFC072202212248AF
:1007B000FFF738FF072203211F48FFF733FF0C2004
:1007C000069002208DF81C0000208DF81E000120EC
:1007D0008DF81F0002208DF81D0006A91648FFF7AE
:1007E000D9FE02940020ADF80C00ADF80E00ADF873
:1007F0001000ADF814000C20ADF8120002A90F484B
:1008000000F00CFF012240F225510C4800F0E1FEFF
:1008100001210A4800F09AFE26208DF804000120EC
:100820008DF805008DF806008DF8070001A800F08E
:100830008FF908B010BD00000000024000440040E5
:1008400000B58BB00121084600F06CFC0121084680
:1008500000F088FC012208212248FFF7E3FE4FF454
:100860008070099002208DF8280000208DF82A0061
:1008700002208DF82B0000208DF8290009A91948C5
:10088000FFF788FEA720ADF8180040F2E730079088
:100890000020ADF82000ADF81A0006A9124800F0BB
:1008A0000BFE6020ADF804000120ADF8060000202A
:1008B0000390ADF8100001A90B4800F0B3FD08212A
:1008C000094800F0EDFD0121074800F083FD0121FA
:1008D000054800F08BFD0121034800F093FD0BB0AB
:1008E00000BD0000000002400000014070B5044659
:1008F000642C00DD64240648047040F2E730604355
:100900006421B0FBF1F52946024800F0D2FD70BD2C
:100910001F000020000001402DE9F84F054600248B
:100920000FF204190FF2241ADFF840B14846FFF71E
:1009300089FCC6B25046FFF785FCC7B25846FFF7A0
:1009400081FC00F0FF0806F10C00B91C014408F11D
:1009500002000844009010222146641C6A5422467A
:100960002946009801F046FA044600222146641CFC
:100970006A5404222146641C6A544D222146641C98
:100980006A5451222146641C6A5454222146641C34
:100990006A542146641C6A5404222146641C6A5429
:1009A000C2222146641C6A5400222046611C8CB27B
:1009B0002A5464222046611C8CB22A54002220460C
:1009C000611C8CB22A542046611C8CB22E5428190A
:1009D00032464946FFF7F6FBA01984B200222046B2
:1009E000611C8CB22A542046611C8CB22F542819E9
:1009F0003A465146FFF7E6FBE01984B20022204652
:100A0000611C8CB22A542046611C8CB205F800800F
:100A1000281942465946FFF7D5FB04EB080084B27B
:100A20002046BDE8F88F00003661383363613966CF
:100A300063626230636636626239376135376230CD
:100A40005F7368656265695F305F300036613833B7
:100A50006361396663626230636636626239376148
:100A6000353762305F736865626569003C2600084F
:100A70000146C020087000204870022070472DE910
:100A8000F04705468946174600244846FFF7DAFB3B
:100A9000C6B23846FFF7D6FB1FFA80F8B01C4044B8
:100AA0001FFA80FA30222146641C6A5422462946E5
:100AB000504601F09FF9044600222146641C6A5406
:100AC0002146641C6E54281932464946FFF77AFBCA
:100AD0003444281942463946FFF774FB04EB0800FA
:100AE00084B22046BDE8F0872DE9F04705468846E8
:100AF000174600243846FFF7A5FBC6B206F10509E4
:100B000082222146641C6A5422462946484601F046
:100B100071F9044600222146641C6A542146641C73
:100B200005F801802146641C6A542146641C6E54F9
:100B3000281932463946FFF745FB34440022214646
:100B4000641C6A542046BDE8F08700BFFEE770478A
:100B500070B5002100230F22C4781CB3174C246801
:100B600004F4E064C4F5E064C4F30721C1F10404B3
:100B7000E3B20A4144789C40E1B2847814402143B6
:100B80000C07210E0E4C05786155047804F01F0502
:100B90000124AC4005786D11AD0005F1E025C5F8E4
:100BA000004109E0047804F01F050124AC40054D24
:100BB0000678761145F8264070BD00000CED00E087
:100BC00000E400E080E100E02DE9F04105460E463A
:100BD0004FF000082E48007820B900202D490870F9
:100BE000BDE8F0812A4800782A490978884205D072
:100BF00027480078274908700020F1E701F06AFBD8
:100C000025A12848FFF702FB044624B13A212046DB
:100C1000FFF70EFB0446A4B1601CFFF71AFB074662
:100C2000002F00DA0027642F00DD6427377030784A
:100C3000002801DD012000E0002028704FF00108AD
:100C400000BF19A11748FFF7E1FA044624B13A2181
:100C50002046FFF7EDFA04465CB1601CFFF7F9FA95
:100C600007460FB1012000E0002028704FF0010876
:100C700000BFB8F1000F06D001F022FA32782978CF
:100C80000BA000F041FD01F0F5FA4046A8E7000096
:100C900008000020090000206272696768746E65B0
:100CA000737300004C0000206C616D705F6F6E000C
:100CB0005B6E65745D20636C6F756420636D64208A
:100CC000706172736564206F6E3D25752062726974
:100CD0006768743D25750D0A0000000038B5684648
:100CE000FFF7C6FE04462146684601F0F5F838BD18
:100CF0002DE9F041E0B006460F464FF4E13001F037
:100D000013FB78A000F000FD002406E07BA000F0BB
:100D1000FBFC4FF4FA7000F05DFE14227EA17FA070
:100D200001F084F820B1601CC0B204461428EDDB49
:100D30001E227BA17BA001F079F84FF4FA6000F04D
:100D400049FE142274A17AA001F070F8142272A155
:100D500079A001F06BF814226FA17BA001F066F876
:100D600003E04FF4FA7000F035FE1E226AA17AA06B
:100D700001F05CF80028F4D133467CA2802140A821
:100D8000009700F0D1FC00240AE0601CC0B20446C9
:100D900001467CA000F0B8FC4FF47A7000F01AFE17
:100DA0004FF47A727EA140A801F040F80028ECD1FF
:100DB0007DA000F0A9FC01F0F3F96846FFF7ACFD57
:100DC0000546002400BF01F055FA2946684601F0A7
:100DD00083F860B94FF4FA6000F0FCFD0221202096
:100DE00001F05AFA18B174A000F08EFC1EE0601CED
:100DF000C0B204460146764B7648027876A000F0F1
:100E000083FC032094FBF0F100FB114048B97EA065
:100E100000F07AFC322242A182A001F007F801F032
:100E2000BFF94FF4FA7000F0D5FDCCE700BF002504
:100E3000002400BF7F4850F82520681CC1B210A8CC
:100E4000FFF752FE804601F015FA414610A801F066
:100E500043F8E0B94FF4FA6000F0BCFD00219020A7
:100E600001F01AFA70B90121902001F015FA48B981
:100E70000221902001F010FA20B98021902001F089
:100E80000BFA20B129466CA000F03EFC26E0504849
:100E90000090601CC0B2044602464E4803782946C2
:100EA0006DA000F031FC681CC0B20546032800DBD1
:100EB0000025032094FBF0F100FB114048B952A03B
:100EC00000F022FC322216A156A000F0AFFF01F084
:100ED00067F94FF4FA7000F07DFDABE700BF60B03A
:100EE000BDE8F0815B6E65745D20696E6974206594
:100EF0007370383236362E2E2E0D0A005B6E6574F6
:100F00005D2077616974696E672065737038323669
:100F1000362E2E2E0D0A00004F4B000041540D0AB4
:100F20000000000041542B5253540D0A00000000F1
:100F3000415445300D0A000041542B4349504D5552
:100F4000583D300D0A00000041542B4349504D4F8D
:100F500044453D300D0A000041542B43574D4F444A
:100F6000455F4355523D310D0A00000041542B436B
:100F7000574A41503D222573222C222573220D0A07
:100F8000000000005B6E65745D206A6F696E206111
:100F9000702072657472792025750D0A00000000BA
:100FA000474F5420495000005B6E65745D2077699F
:100FB0006669204F4B0D0A005B6E65745D206D7194
:100FC0007474206C6F67696E204F4B0D0A0000002F
:100FD0004C000020080000205B6E65745D206D7180
:100FE0007474206C6F67696E207265747279202545
:100FF000752C206C656E3D257520726573703A25E1
:101000002E3430730D0A00005B6E65745D206C69D0
:101010006E6B207265636F766572792E2E2E0D0AC7
:101020000000000041542B434950434C4F53450DA1
:101030000A0000000C0000205B6E65745D20737573
:1010400062736372696265204F4B202863616E642E
:10105000202575290D0A00005B6E65745D2073758F
:10106000627363726962652063616E642025752016
:1010700072657472792025752C206C656E3D25751E
:1010800020726573703A252E3430730D0A0000000B
:101090002DE9F04FFFB004460D4616461F460A20C4
:1010A00095FBF0F100FB115895FBF0F994FBF0F182
:1010B00000FB114A94FBF0FB8898002E01DA002116
:1010C00000E031465B460E4ACDE900A9CDE9028138
:1010D000CDE90470C0214FA800F026FB4FAA0949B2
:1010E00007A8FFF7CCFC8046414607A800F0F4FEB5
:1010F00010B105A000F008FB7FB0BDE8F08F000044
:10110000C4250008802500085B6E65745D2070753D
:10111000626C697368206661696C0D0A00000000EA
:101120007047000029B1064A12680243044B1A6056
:1011300004E0034A12688243014B1A6070470000C2
:101140003038024029B1064A12680243044B1A6043
:1011500004E0034A12688243014B1A6070470000A2
:101160004038024029B1064A12680243044B1A6013
:1011700004E0034A12688243014B1A607047000082
:1011800044380240F0B50021002200240225002648
:101190000223324F3F6807F00C0121B1042905D02A
:1011A000082937D105E02E4F076036E02D4F076044
:1011B00033E02A4F3F1F3F68C7F38056274F3F1F3A
:1011C0003F6807F03F036EB1264FB7FBF3F7DFF838
:1011D0008CC0ACF1040CDCF800C0CCF3881C07FB1D
:1011E0000CF40CE01E4FB7FBF3F7DFF870C0ACF166
:1011F000040CDCF800C0CCF3881C07FB0CF4174F80
:101200003F1F3F68C7F301477F1C7D00B4FBF5F724
:10121000076002E0124F076000BF00BF0F4F3F683A
:1012200007F0F0010909104F7A5C0768D740476062
:101230000A4F3F6807F4E051890A0B4F7A5C476810
:10124000D7408760054F3F6807F46041490B064F60
:101250007A5C4768D740C760F0BD0000083802409C
:101260000024F40000127A002000002070470000E3
:101270000CB50020019000903448006840F48030A4
:101280003249086000BF3148006800F40030009027
:101290000198401C0190009818B90198B0F5A04F32
:1012A000F1D12A48006800F4003010B1012000900C
:1012B00001E0002000900098012846D123484030EA
:1012C000006840F0805021494031086020480068A3
:1012D00040F440401E4908601C48083000681B4923
:1012E000083108600846006840F40040086008467D
:1012F000006840F4A05008601648091F0860081FE5
:10130000006840F08070091F086000BF0F48006847
:1013100000F000700028F9D040F205700E49086016
:101320000A480830006820F00300084908310860C6
:101330000846006840F00200086000BF034808301B
:10134000006800F00C000828F8D10CBD00380240FD
:101350000070004008544007003C0240024800680A
:10136000401C0149086070470000002010B5154876
:10137000006840F47000134908601348006840F0AA
:1013800001001149086000200F49083108600E482B
:1013900000680E4908400C4908600D48091D0860A6
:1013A000081F006820F48020091F086000200649FB
:1013B0000C310860FFF75CFF4FF000600149803995
:1013C000086010BD88ED00E000380240FFFFF6FE27
:1013D0001030002421B1028842F08002028004E033
:1013E00002884FF67F731A400280704721B102884D
:1013F00042F00102028004E002884FF6FE731A40B8
:101400000280704731B1B0F8442042F40042A0F8A5
:10141000442005E0B0F84420C2F30E02A0F84420B6
:101420007047000070B5002400220023058C4FF6A1
:10143000FE7635400584028C8388048B4FF68F75C9
:101440002C40B51E2C400D882C43751E2A408D89DA
:101450002A434D882A43104DA84202D00F4DA8427E
:1014600013D14FF6F7752A40CD892A434FF6FB7505
:101470002A408D882A434FF6FF652B404FF6FF55D3
:101480002B400D8A2B434D8A2B43838004838D6828
:101490004563028470BD000000000140000401406B
:1014A0000A460021018B4FF6F7731940114301835F
:1014B000704741637047000000220288184B984231
:1014C0000ED0184B98420BD0B0F1804F08D0164B7D
:1014D000984205D0154B984202D0154B984204D142
:1014E0004FF68F731A404B881A43124B984207D01D
:1014F000114B984204D04FF6FF431A400B891A4310
:1015000002804B68C3620B880385054B984202D06A
:10151000044B984201D18B7A038601238382704762
:1015200000000140000401400004004000080040A9
:10153000000C0040001000400014004010B5FFF700
:10154000BBF810BD10B5FEF7FBFF10BD21B18289BD
:1015500042F40052828104E082894DF6FF731A4002
:101560008281704702460020B1F5007F00D100BFA4
:1015700013880B400BB1012000E00020704770B5CC
:101580000246002400230025002040F66A16B142DE
:1015900000D100BFC1F3421501F01F03012606FA76
:1015A00003F3012D02D19689334006E0022D02D1CA
:1015B000168A334001E0968A33400C12012606FA5F
:1015C00004F41688344013B10CB1012000E000206F
:1015D00070BDF0B50346002400260025002040F62B
:1015E0006A17B94200D100BF1846C1F3421401F096
:1015F0001F06012707FA06F5012C01D10C3004E083
:10160000022C01D1103000E014301AB107682F43CA
:10161000076002E00768AF430760F0BD2DE9FF47B0
:1016200005460E460024A14600BFA046B08900B181
:1016300000BF2C8A24F44054F08804432C82AC89E7
:1016400041F20C608443B0883189084371890843B2
:101650000443AC81AC8A24F44074B0890443AC8266
:101660006846FFF78FFD2048854202D01F4885421B
:1016700002D1DDF80C9001E0DDF80890A88900F4B3
:10168000004040B109EBC90000EB09103168490086
:10169000B0FBF1F707E009EBC90000EB0910316876
:1016A0008900B0FBF1F76420B7FBF0F004012009DA
:1016B000642101FB1078A88900F4004040B1322079
:1016C00000EBC800B0FBF1F000F00700044308E0B5
:1016D000322000EB08106421B0FBF1F000F00F00A5
:1016E00004432C81BDE8FF87001001400014014035
:1016F00001468888C0F308007047C1F30802828061
:10170000704700BFFEE700000FB4054B10B503A9FA
:10171000044A029800F036F810BC5DF814FB000093
:10172000911A0008440000200FB47CB50C0009ADEC
:1017300001D0611E00E00021CDE90001064B6A46A0
:101740002946089800F01EF8002C02D0009A0021CB
:1017500011707CBC5DF814FB3D190008004870470F
:101760004800002002E008C8121F08C1002AFAD170
:1017700070477047002001E001C1121F002AFBD111
:10178000704700002DE9FF4F8BB09A460F46054683
:10179000002606E025280BD052460D9990476D1C77
:1017A000761C28780028F5D10FB03046BDE8F08FC0
:1017B0000024A0460122604900E0044315F8013FDF
:1017C000203B02FA03F00842F7D128782E2817D1DF
:1017D00015F8010F44F004042A280ED06FF02F02F0
:1017E0002878A0F1300109290AD808EB880102EB1A
:1017F000410100EB01086D1CF2E757F8048B6D1CEA
:10180000287869283ED006DC0028CDD063280BD08C
:10181000642804D136E0732810D075284BD0524686
:101820000D999047761C85E017F8040B8DF80000A1
:1018300000208DF80100E946012003E057F8049BE1
:101840004FF0FF3061074FF0000401D40AE0641C40
:1018500044450DDA8442FADB19F804100029F6D168
:1018600006E0641C8442FCDB19F804100029F8D15E
:10187000264404E019F8010B52460D999047641E66
:10188000F8D257E001CF4FF00A0B002802DA4042AD
:101890002D2102E0210504D52B218DF824100121F2
:1018A00003E0E10705D02021F7E70DF120090891B9
:1018B0000CE00021F9E701CF4FF00A0BF9E7594698
:1018C000FEF7D4FC01F1300209F8012D0028F6D111
:1018D000ADEB090000F1200B600701D44FF00108C7
:1018E000D84502DDA8EB0B0000E000208046002474
:1018F00006E009A85246005D0D999047641C761CCD
:1019000008988442F5DB04E0302052460D99904758
:10191000761CB8F10001A8F10108F5DC05E019F822
:10192000010B52460D999047761CBBF10001ABF1BB
:10193000010BF4DC6D1C34E7092801004A68002A19
:1019400006D00A68531C0B6010704868401E48603F
:101950007047000000B587B001210846FFF7E2FBA1
:1019600001211020FFF7FEFB072209211748FEF78F
:1019700059FE07220A211548FEF754FE4FF4C060B5
:10198000059002208DF8180000208DF81A00012023
:101990008DF81B0005A90D48FEF7FCFD4FF4E13062
:1019A00001900020ADF80800ADF80A00ADF80C0079
:1019B0000C20ADF80E0001A90548FFF72FFE01210C
:1019C0000348FFF7C3FD07B000BD00000000024060
:1019D0000010014010B5044603E04FF47A7000F0A7
:1019E00005F8201EA4F10104F7D110BD10B5084B75
:1019F0005968084B1B68084CB3FBF4F303FB00F277
:101A000000BF034B5B685B1A9342FAD310BD000022
:101A1000001000E03000002040420F0070B50024AC
:101A200000251BE06421012000F01EF808B1FF2012
:101A300070BD2820FFF7DAFF6006040E0221094876
:101A4000FEF713FE08B144F001046421002000F009
:101A50000BF808B1FF20EBE7681CC5B2082DE1DBED
:101A60002046E5E70000024070B504460D4605E05B
:101A7000281EA5F1010501D1012070BD02210348F6
:101A8000FEF7F3FDA042F3D10020F6E7000002408C
:101A900070B504460D46E1B20548FFF72EFE00BFC3
:101AA00080210348FFF75EFD0028F9D0204670BD75
:101AB000001001401CB501211120FFF733FB00206D
:101AC0008DF804001020009001208DF80700694671
:101AD0000648FEF75FFD0120009002208DF8070008
:101AE00069460348FEF756FD1CBD00000010024089
:101AF000000002408CB000200B900A9009900890E2
:101B0000079006900126FFF725FF01210846FFF701
:101B100009FB3002049001208DF8140000208DF89C
:101B200016008DF817008DF8150004A98848FEF7F7
:101B300031FD00240FE04FF480718548FEF79EFDD3
:101B40000020039002E00398401C03908149039811
:101B50008842F8D3641C062CEDDBFEF7DDFC7E48E2
:101B600000684FF47A72B0FBF2F1481EB0F1807F4A
:101B700000D31BE0481E4FF0E022506150170F22A7
:101B8000002804DB13071C0E744B1C5406E01307DB
:101B90001D0E734B00F00F04241F1D5500BF0020C5
:101BA0004FF0E02290610720106100BF6DA0FFF7A9
:101BB000ABFDFFF77FFFFEF743FEFEF73FFC4FF460
:101BC000E130FEF7E7FD72480078FEF78FFE012056
:101BD0007049087070A173A0FFF78AF80027B6E07B
:101BE000714804680B98201AB0F5FA6F22D30B9451
:101BF00008A909A8FEF736FCE0B99DF820000A21E3
:101C000090FBF1F201FB120003909DF8200090FB85
:101C1000F1F002909DF8240090FBF1F201FB120A12
:101C200090FBF1FB03980090524659465FA0029B3F
:101C3000FFF76AFDFEF73AFD0546002D05DB294654
:101C40005FA0FFF761FDFEF725FD10215F48FEF75D
:101C50000CFD08B9012000E00020804601213C482D
:101C6000FEF703FD012800D100E000208146B8F115
:101C7000000F12D0079880B94648007808B90120B3
:101C800000E0002043490870097811B14049097803
:101C900000E000210846FEF729FECDF81C80B9F1CE
:101CA000000F17D00698A8B9701CC11700EB9171EE
:101CB0008910A0EB8101CEB24548805D344908709F
:101CC0003448007810B90120324908703048007853
:101CD000FEF70CFECDF818902E48007805902C48A1
:101CE0000078049004A905A8FEF76EFFC0B19DF826
:101CF0001400284908709DF81000254908702549EE
:101D0000097811B12249097800E000210846FEF760
:101D1000EDFD1F4802781F4801782EA0FFF7F4FC64
:101D2000E01B47F23051884202D32746FEF7D6FF28
:101D30000A98201A41F28831884207D30A942A4629
:101D40009DF820109DF8240000F0D6FA00BF47E768
:101D50000000024060E316003000002000E400E0D4
:101D600018ED00E00D0A3D3D3D2070657374206D57
:101D70006F6E69746F7220626F6F742028636C6F6E
:101D800075642076657229203D3D3D0D0A000000F6
:101D900005000020040000206C697169353333347C
:101DA000000000007878710000000020543D257587
:101DB0002E257520483D25752E25750D0A0000003D
:101DC000706573743D25640D0A0000000010024028
:101DD000E0230008636C6F756420636D64202D3E02
:101DE000206F6E3D2575206272696768743D2575A8
:101DF0000D0A000030B5034600BF1846DD1703EB9F
:101E00005565ED11A3EBC515ECB2DD1703EB556578
:101E1000C5F3CF13002B01DD44F080041046551CA0
:101E2000EAB20C54002BE8DC104630BD2DE9F0413D
:101E300004460D461646374600F01CFA204600F0D0
:101E400093F91EE00A20FFF7C5FD16480078002828
:101E500013DD144800781449097888420DD100F048
:101E600039FA287820B129461048FEF7CFF920B179
:101E700000F000FA0020BDE8F0810A4800780A4925
:101E80000870381EA7F101018FB2DBD100F022FAF1
:101E9000064B04480278214605A0FFF735FC0120D7
:101EA000E9E7000008000020090000204C000020A5
:101EB0005B41542D4641494C5D20252E3230732024
:101EC0007C206C656E3D257520726573703A252EF9
:101ED0003630730D0A0000002DE9F04186B005464A
:101EE0000C460026234646A218216846FFF71CFC34
:101EF00000BF00F0BFF9684600F036F94FF0C8089F
:101F0000002724E00A20FFF765FD414800780028FB
:101F100019DD3F4800783F490978884213D100F025
:101F2000D9F93E213C48FEF783F908B1012715E0B5
:101F30003AA13948FEF76AF920B93AA13648FEF7C6
:101F400065F900B10AE03248007832490870B8F10A
:101F50000000A8F101011FFA81F8D3D100BF4FB9E9
:101F60002D4A2B48017831A0FFF7CEFB012006B0A7
:101F7000BDE8F0812146284600F082F8C82726E017
:101F80000A20FFF727FD2248007800281BDD2048A3
:101F9000007820490978884215D100F09BF92DA1DD
:101FA0001D48FEF733F918B100F064F90020DEE7B0
:101FB0001AA11948FEF72AF920B91AA11648FEF706
:101FC00025F900B108E01248007812490870381E5F
:101FD000A7F101018FB2D3D100BF0F4A0C4801789D
:101FE0001DA0FFF791FB701CC0B20646022801DB62
:101FF0000120BCE74FF4FA70FFF7ECFC79E7000032
:1020000041542B43495053454E443D25750D0A001C
:1020100008000020090000204C0000204552524FCB
:1020200052000000434C4F53454400005B6D7174F7
:10203000742D74785D206E6F20273E27206C656EAE
:102040003D257520726573703A252E3430730D0A64
:10205000000000004F4B00005B6D7174742D7478AC
:102060005D206E6F204F4B2C206C656E3D257520DA
:10207000726573703A252E3430730D0A000000002B
:1020800070B504460D460BE014F8011B0B48FFF732
:1020900034FB00BF80210948FFF764FA0028F9D01B
:1020A000281EA5F101018DB2EED100BF40210348E9
:1020B000FFF758FA0028F9D070BD00000048004032
:1020C00070B5E0B0282156A8FEF795F81CA11F486E
:1020D000FEF79CF8044600250CB960B070BD0B34C7
:1020E0000AE02078222800D10DE014F8012B2846C0
:1020F000691CCDB256A90A54207820B120787B28DB
:1021000001D0272DEDD300BF002056A9485505B9B1
:10211000E3E714220EA101A8FEF754F856AB114ACA
:10212000802106A8FFF700FB01AA06A926A8FEF752
:10213000A6FC0646314626A8FFF7CEFE00BFCCE738
:10214000726571756573745F69643D004C000020B1
:102150007B22726573756C745F636F6465223A30BD
:102160007D0000003025000810B504460BE014F88F
:10217000011B0A48FFF7C1FA00BF80210748FFF79B
:10218000F1F90028F9D020780028F0D100BF4021D3
:102190000248FFF7E7F90028F9D010BD00480040D9
:1021A00010B5A2B0002440F25B7010A31EA28021E3
:1021B000009002A8FFF7B8FA0AE0601CC0B204461B
:1021C000014620A0FFF7A0FA4FF47A70FFF702FC57
:1021D0004FF4967221A102A8FFF728FE0028ECD147
:1021E00020A0FFF791FA002022B010BD37306264C2
:1021F0006466323534322E7374312E696F746461C3
:102200002D6465766963652E636E2D6E6F727468DA
:102210002D342E6D79687561776569636C6F7564AF
:102220002E636F6D0000000041542B4349505354FE
:102230004152543D22544350222C222573222C25F6
:10224000750D0A005B6E65745D20746370207265A5
:102250007472792025750D0A00000000434F4E4E20
:10226000454354005B6E65745D20746370204F4B72
:102270000D0A000010B500200449087004490870D8
:102280004FF400710348FDF7B6FF10BD08000020B1
:10229000090000204C00002010B502460B4600212A
:1022A0000CE00A48405C904206D1084C481C205C77
:1022B000984201D1012010BD481CC1B2481C044CF9
:1022C0002478A042EDDB0020F5E700004C00002060
:1022D00008000020002006490978B1F5007F02DAE5
:1022E0000349097801E040F2FF11024A5054704757
:1022F000080000204C000020F8B505460E461446A4
:10230000074800780090002C01DA002000E0204609
:1023100002460448037831462846FEF7B9FEF8BD68
:10232000050000200400002010B588B004460121FB
:102330000220FEF7F7FE01218804FEF703FF0722C3
:102340000A212548FEF76EF907220B212248FEF7E5
:1023500069F94FF44060069002208DF81C000020BF
:102360008DF81E0001208DF81F0002208DF81D0041
:1023700006A91948FEF70EF902940020ADF80C00EA
:10238000ADF80E00ADF81000ADF814000C20ADF85B
:10239000120002A91148FFF741F9012240F225512C
:1023A0000E48FFF716F901210C48FFF7CFF8272058
:1023B0008DF8040002208DF8050001208DF806003C
:1023C0008DF8070001A8FEF7C3FB4FF4FA70FFF782
:1023D00001FB08B010BD00000004024000480040AE
:1023E00019324B6400404040404040404040414131
:1023F00041414140404040404040404040404040DA
:102400004040404040050202020202020202020273
:102410000202020202202020202020202020200270
:102420000202020202029090909090901010101000
:10243000101010101010101010101010101010109C
:102440000202020202028888888888880808080830
:1024500008080808080808080808080808080808FC
:102460000202020240000000E5230008246F632FEF
:10247000646576696365732F3661383363613966E5
:102480006362623063663662623937613537623063
:102490005F7368656265692F7379732F636F6D6D04
:1024A000616E64732F230000246F632F6465766967
:1024B0006365732F366138336361396663626230F6
:1024C0006366366262393761353762305F736865DB
:1024D0006265692F7379732F636F6D6D616E6473BD
:1024E0002F726571756573745F69643D2B00000020
:1024F000246F632F646576696365732F36613833A3
:10250000636139666362623063663662623937617D
:10251000353762305F7368656265692F7379732F31
:102520006D657373616765732F646F776E0000006C
:10253000246F632F646576696365732F3661383362
:10254000636139666362623063663662623937613D
:10255000353762305F7368656265692F7379732FF1
:10256000636F6D6D616E64732F726573706F6E73E0
:10257000652F726571756573745F69643D257300BD
:10258000246F632F646576696365732F3661383312
:1025900063613966636262306366366262393761ED
:1025A000353762305F7368656265692F7379732FA1
:1025B00070726F706572746965732F7265706F7277
:1025C000740000007B227365727669636573223A3A
:1025D0005B7B22736572766963655F6964223A2268
:1025E0006D7964657461222C2270726F70657274EB
:1025F000696573223A7B2274656D70223A25752EC7
:1026000025752C2268756D69223A25752E25752C45
:10261000227065737473223A25642C226C616D708C
:102620005F6F6E223A25752C226272696768746E3C
:10263000657373223A25757D7D5D7D003039653285
:10264000643535356438306138333534633331655A
:102650003239373338383331393966646235616439
:10266000323736656539633432323065366332313C
:102670003339376635656136343163310000000027
:10268000A0260008000000204C000000641700088D
:10269000EC2600084C000020140600007417000807
:1026A00000000000003C0000000000006C24000856
:1026B000A8240008F0240008FFFFFFFF000000002E
:1026C00000000000010203040102030406070809D8
:1026D000007A030A00000000000000000102030469
:0C26E000060708090000000000000000D0
:040000050800018965
:00000001FF
