:020000040800F2
:1000000078080020A10100082F0D000863080008EF
:100010002B0D00085B040008BB1A0008000000005C
:10002000000000000000000000000000251600088D
:10003000B105000800000000D914000815170008D9
:10004000BB010008BB010008BB010008BB010008A0
:10005000BB010008BB010008BB010008BB01000890
:10006000BB010008BB010008BB010008BB01000880
:10007000BB010008BB010008BB010008BB01000870
:10008000BB010008BB010008BB010008BB01000860
:10009000BB010008BB010008BB010008BB01000850
:1000A000BB010008BB010008BB010008BB01000840
:1000B000BB010008BB010008BB010008BB01000830
:1000C000BB010008BB010008BB010008BB01000820
:1000D000BB010008BB010008F5180008FD18000866
:1000E000BB010008BB010008BB010008BB01000800
:1000F000BB010008BB010008BB010008BB010008F0
:10010000BB010008BB010008BB010008BB010008DF
:10011000BB010008BB010008BB010008BB010008CF
:10012000BB010008BB010008BB010008BB010008BF
:10013000BB010008BB010008BB010008BB010008AF
:10014000BB010008BB010008BB010008BB0100089F
:10015000BB010008BB010008BB010008BB0100088F
:10016000BB010008BB010008BB010008BB0100087F
:10017000BB010008BB010008BB010008BB0100086F
:10018000BB010008BB010008DFF810D000F0D2F876
:100190000048004735220008AFF3008078080020AF
:1001A0000648804706480047FEE7FEE7FEE7FEE711
:1001B000FEE7FEE7FEE7FEE7FEE7FEE7251700089D
:1001C0008901000840EA01039B0703D009E008C940
:1001D000121F08C0042AFAD203E011F8013B00F80C
:1001E000013B521EF9D2704730B505462A460B46F0
:1001F00012F8010B13F8014B08B1A042F8D01CB162
:10020000002802D06D1CF1E7284630BDCAB2401E5E
:1002100010F8011F8A4202D00029F9D1002070474E
:10022000421C10F8011B0029FBD1801A704730B521
:1002300004460020034600E05B1C934203D2E05CCE
:10024000CD5C401BF8D030BD70B5064601F062FCB5
:10025000046805460A220021304600F033F82C607D
:1002600070BD2DE9F05F0546002092469B4688460A
:100270000646814640241BE0284641464746224622
:1002800000F079F853465A46C01A914110D31146EE
:100290001846224600F060F82D1A67EB01084F4619
:1002A00022460120002100F057F817EB00094E41CB
:1002B000201EA4F10104DFDC484631462A464346AD
:1002C000BDE8F09F2DE9F04791460F468046044671
:1002D000002614F8015B2DB100F05EF80068405D67
:1002E000C007F6D12B2D02D02D2D18D0641E4A4602
:1002F0003946204600F054F827B13968A14201D1AF
:10030000C7F8008071054FF002040BD54042002869
:1003100003DD01F0FFFB0460A007BDE8F08746F4B1
:100320008066E4E70028F8DA01F0F4FB04606FF07F
:100330000040F2E7064C074D06E0E06840F001039C
:1003400094E8070098471034AC42F6D3FFF720FF3B
:100350003C2F00085C2F0008202A04DB203A00FA1A
:1003600002F1002070479140C2F1200320FA03F30C
:10037000194390407047202A04DB203A21FA02F00A
:100380000021704721FA02F3D040C2F120029140CF
:10039000084319467047000000487047DC2C0008ED
:1003A0002DE9F05F82460078002715468B460AF15A
:1003B0000104B946302801D09DB113E014F8010BB7
:1003C0000127782803D0582801D045B10AE00DB1A3
:1003D000102D07D10027102514F8010B02E0082585
:1003E00000E00A250026B0460EE005FB080005FBEC
:1003F00006F1012701EB10461FFA80F8B6F5803FA1
:1004000000D3B94614F8010B294600F018F800286B
:10041000EBDABBF1000F05D00FB1641E00E05446CB
:10042000CBF80040B9F1000F06D001F073FB0221B8
:100430000160C81EBDE8F09F48EA0640FAE73A2886
:1004400000D2303820F02002412A01D3A2F1370037
:10045000884201D34FF0FF30704700BFFEE7000035
:100460001CB50220009000208DF8040001208DF8BA
:1004700007006946014800F077F91CBD0000024002
:100480001CB50220009001208DF804008DF80600B4
:100490008DF8070002208DF805006946014800F03C
:1004A00063F91CBD0000024010B50121084601F0AF
:1004B00015F8FFF7E5FF012202210B4800F0CCF907
:1004C0000A2001F0B1FDFFF7CBFF022001F0ACFDE7
:1004D0000221054800F0B3F904462146034801F023
:1004E000EFFA002010BD000000000240E02C0008E0
:1004F0002DE9F04781468A4672B6FFF7C1FF002218
:1005000002212A4800F0A8F9142001F08DFD0122F3
:100510000221264800F0A0F9FFF7A2FF1E2001F0FB
:100520008FFD4FF4FA71002001F0CAFD18B162B6D8
:100530000120BDE8F0874FF4FA71012001F0C0FD01
:1005400010B162B60220F4E74FF4FA71002001F016
:10055000B7FD10B162B60320EBE701F089FD044658
:1005600001F086FD054601F083FD064601F080FDA1
:10057000074601F07DFD804662B66019304438447C
:10058000C1B2414501D00420D3E704EB840005EB60
:1005900040008AF8000007F07F0006EB860100EBC0
:1005A000410089F800000020C3E70000000002407D
:1005B000704700000748006840F0807005490860F7
:1005C0000020054948600846006840F001000860C6
:1005D00070470000FCED00E0001000E070B5002561
:1005E0000821524801F09AF940B1504801F05CFAF4
:1005F0004F480068401C4E49086070BD40F22551CC
:100600004A4801F098F900B9F7E7484801F04CFA78
:10061000C4B248480068401C464908604648007813
:1006200020B1012825D0022870D149E0434844492F
:100630000978405CA04211D1012541480078401C56
:10064000C0B23F490870052812DB01203A49087002
:1006500000203B4908703B49088009E02B2C04D15D
:10066000012037490870012502E000203449087054
:100670004CE00125302C14DB392C12DCA4F13000C5
:100680003049098801EB810100EB41002D490880C8
:1006900008460088B0F5FA6F11DD4FF4FA60088063
:1006A0000DE03A2C06D1022023490870002026498B
:1006B000088004E00020204908702149087025E0E6
:1006C000012522480088B0F5FF7F0ADC1F49088811
:1006D000411C1E4A11801E490C541E4800681E49C8
:1006E000086019480088401C80B2174908801549E5
:1006F0000988884209DB00200F49087010490870FA
:1007000016480068401C1549086000BF00BF5DB96D
:1007100013480088B0F5FF7F06DC11490888411CAA
:100720000F4A11800F490C5400BF66E70048004093
:1007300014000020100000201C000020542C000891
:100740001D0000201E000020200000200A000020C4
:1007500064020020000000200C000020180000208F
:100760000800002064000020F0B50A4600210023A4
:10077000002400BF3DE0012505FA01F3156805EAF4
:1007800003049C4234D105684F000326BE40B543A4
:10079000056015794E00B54006683543056015794A
:1007A000012D02D01579022D16D185684F00032640
:1007B000BE40B543856055794E00B54086683543E7
:1007C0008560456801268E40B54345604568967949
:1007D0008E40B6B235434560C5684F000326BE4023
:1007E000B543C560D5794E00B540C6683543C56090
:1007F000491C1029BFD3F0BDF0B5002300244D07DC
:10080000ED0E02FA05F3CE1000F1200555F8265042
:100810004E07F70E0F26BE40B543CF1000F120065D
:1008200046F82750CE1000F1200555F8265045EA2D
:100830000304CE1000F1200545F82640F0BD024625
:10084000002013690B400BB1012000E0002070472D
:1008500042694A40426170470AB1018300E0418326
:10086000704700BFFEE700004FF0FF30024908600C
:10087000002002490870704730000020340000203A
:1008800001480068704700003000002010B540F2B9
:1008900025512F4801F04FF8002858D02C4801F07E
:1008A00003F92C49087008460078242803D1002059
:1008B000294908704BE027480078232835D10020CB
:1008C000254909780F2902D22349097800E00F2130
:1008D000224A505420480078002822DD00210122BD
:1008E000002012E01D4B1B5C302B03DB1B4B1B5C01
:1008F000392B01DD00220CE0184B1B5C303B01EB77
:10090000810403EB4401431CD8B2134B1B7898427B
:10091000E8DB00BF22B1124801600120114B1870C2
:1009200000BF00200C49087011E00B4800780F2828
:100930000AD208480178084802780078401C064B23
:1009400018700648815402E000200349087010BD69
:1009500000440040350000203600002064040020E0
:10096000300000203400002010B588B0044601217A
:10097000084600F0B3FD0121480400F0BFFD072246
:1009800002212248FFF738FF072203211F48FFF703
:1009900033FF0C20069002208DF81C0000208DF8FB
:1009A0001E0001208DF81F0002208DF81D0006A9F1
:1009B0001648FFF7D9FE02940020ADF80C00ADF800
:1009C0000E00ADF81000ADF814000C20ADF81200C8
:1009D00002A90F4800F0FEFF012240F225510C4809
:1009E00000F0D3FF01210A4800F08CFF26208DF88B
:1009F000040001208DF805008DF806008DF8070031
:100A000001A800F095F908B010BD000000000240F8
:100A10000044004000B58BB00121084600F05EFDA7
:100A20000121084600F07AFD012208212248FFF743
:100A3000E3FE4FF48070099002208DF8280000201A
:100A40008DF82A0002208DF82B0000208DF8290057
:100A500009A91948FFF788FEA720ADF8180040F251
:100A6000E73007900020ADF82000ADF81A0006A985
:100A7000124800F0FDFE6020ADF804000120ADF842
:100A8000060000200390ADF8100001A90B4800F00B
:100A9000A5FE0821094800F0DFFE0121074800F00B
:100AA00075FE0121054800F07DFE0121034800F09C
:100AB00085FE0BB000BD00000000024000000140B8
:100AC00070B50446642C00DD64240648047040F2CE
:100AD000E73060436421B0FBF1F52946024800F09D
:100AE000C4FE70BD37000020000001402DE9F84F22
:100AF000054600240FF204190FF2301ADFF84CB14A
:100B00004846FFF78DFBC6B25046FFF789FBC7B2D8
:100B10005846FFF785FB00F0FF0806F10C00B91CF2
:100B2000014408F102000844009010222146641C90
:100B30006A5422462946009801F054FD04460022DA
:100B40002146641C6A5404222146641C6A544D22C6
:100B50002146641C6A5451222146641C6A54542262
:100B60002146641C6A542146641C6A5404222146AE
:100B7000641C6A54C2222146641C6A540022204626
:100B8000611C8CB22A5464222046611C8CB22A5407
:100B900000222046611C8CB22A542046611C8CB273
:100BA0002E54281932464946FFF70CFBA01984B28F
:100BB00000222046611C8CB22A542046611C8CB253
:100BC0002F5428193A465146FFF7FCFAE01984B22F
:100BD00000222046611C8CB22A542046611C8CB233
:100BE00005F80080281942465946FFF7EBFA04EB56
:100BF000080084B22046BDE8F88F00003661383323
:100C00006361396663626230636636626239376196
:100C1000353762305F7368656265695F305F305F8A
:100C200032303236303930363033000036613833C6
:100C30006361396663626230636636626239376166
:100C4000353762305F73686562656900F82E0008A9
:100C50000146C020087000204870022070472DE92E
:100C6000F04705468946174600244846FFF7D8FA5C
:100C7000C6B23846FFF7D4FA1FFA80F8B01C4044D9
:100C80001FFA80FA30222146641C6A542246294603
:100C9000504601F0A7FC044600222146641C6A5419
:100CA0002146641C6E54281932464946FFF78AFAD9
:100CB0003444281942463946FFF784FA04EB080009
:100CC00084B22046BDE8F0872DE9F0470546884606
:100CD000174600243846FFF7A3FAC6B206F1050905
:100CE00082222146641C6A5422462946484601F065
:100CF00079FC044600222146641C6A542146641C87
:100D000005F801802146641C6A542146641C6E5417
:100D1000281932463946FFF755FA34440022214655
:100D2000641C6A542046BDE8F08700BFFEE77047A8
:100D300070B5002100230F22C4781CB3174C24681F
:100D400004F4E064C4F5E064C4F30721C1F10404D1
:100D5000E3B20A4144789C40E1B2847814402143D4
:100D60000C07210E0E4C05786155047804F01F0520
:100D70000124AC4005786D11AD0005F1E025C5F802
:100D8000004109E0047804F01F050124AC40054D42
:100D90000678761145F8264070BD00000CED00E0A5
:100DA00000E400E080E100E02DE9F04F8DB08046E6
:100DB000894600200C90002782468DF800007B4871
:100DC000008818B900200DB0BDE8F08F7848007891
:100DD00030B97848006878490968401A782801D203
:100DE0000020F0E7002240F22551744800F0CDFDCC
:100DF0006E480588B5F5007F01DB40F2FF15042D34
:100E00005FDD6F4800780321B1EB201F59D1012429
:100E10004FF0000B01E0601C84B2AC4205DA684878
:100E2000005D00F080000028F5D1AC4201DA601CC2
:100E300084B2A01CA84243DC6149601C085C095DC7
:100E400040EA012BA01C84B204EB0B00A84237D867
:100E5000264621E05A4988190B225AA1FFF7E7F9E3
:100E6000C0B9002006F10B018EB209E03146721CB8
:100E700096B2534A535C0146421C90B20DF80130C1
:100E800004EB0B01B14201DD2F28EFD300210DF857
:100E9000001007E0701C86B204EB0B0106F10B009A
:100EA0008142D7DC00BF04EB0B0087B244480078D6
:100EB00000F0060008B1B81C87B24FF0010A00BF6D
:100EC00000BFBAF1000F00D10027384607E03C49C7
:100ED000095C11B92E213A4A1154411C88B2A8422A
:100EE000F5DB0021364A5155BAF1000F3FD0AF4231
:100EF0003DDA1146C81936A1FFF776F9044624B148
:100F00003A212046FFF782F90446BCB1601CFFF786
:100F10009BF90646002E00DA0026642E00DD6426CA
:100F200089F8006099F80000002801DD012000E048
:100F3000002088F8000001200C9000BF2049C8194B
:100F400026A1FFF751F9044624B13A212046FFF7C4
:100F50005DF9044654B1601CFFF776F908B1012031
:100F600000E0002088F8000001200C9000BF0C98E1
:100F700028B9BAF1000F02D0284601F0B5F801F007
:100F8000F3F8012240F225510C4800F0FEFC0C98C9
:100F900050B199F8002098F800106B4611A000F0AD
:100FA0008FFD684601F0A4FC0C980CE70A000020B5
:100FB0001C000020000000200C0000200048004021
:100FC00064020020726571756573745F69643D0029
:100FD0006272696768746E65737300006C616D702E
:100FE0005F6F6E005B6E65745D20636C6F7564206F
:100FF000636D6420706172736564206F6E3D25754A
:10100000206272696768743D2575207269643D25A8
:101010002E3332730D0A000038B56846FFF718FE0C
:1010200004462146684601F079FB38BD2DE9F04FB2
:10103000D1B0074688464FF4E13001F0ADFD7BA00A
:1010400000F03EFD002409E07EA001F081FC04F0E8
:101050000F0010B90A2000F0E7FF641C802CF3DBBE
:10106000C82000F0E1FF01F061FD002506E076A058
:1010700000F026FD4FF4FA7000F0D6FF142279A19B
:1010800079A001F0CBFA20B1681CC0B20546142843
:10109000EDDB1E2275A176A001F0C0FA4FF4FA60D4
:1010A00000F0C2FF14226FA174A001F0B7FA14225D
:1010B0006CA174A001F0B2FA14226AA175A001F02B
:1010C000ADFA03E04FF4FA7000F0AEFF1E2265A106
:1010D00074A001F0A3FA0028F4D13B4676A2802147
:1010E00031A8CDF8008000F0FBFC00250AE0681C68
:1010F000C0B20546014676A000F0E2FC4FF47A70DB
:1011000000F092FF4FF47A7278A131A801F086FACC
:101110000028ECD177A000F0D3FC01F035FC0026CC
:1011200000BF01F0C9FA04461CB976A000F0C8FC63
:1011300013E0701CC0B206460146224677A000F0BC
:10114000BFFC322249A17EA001F068FA01F01CFC2C
:101150004FF4FA7000F068FFE3E700BF0024A146F7
:1011600000BF7B4850F82420601CC1B201A8FFF7E3
:10117000ABFD83464FF0000A002240F2255175482E
:1011800000F003FC00F0F0FF012240F2255171480D
:1011900000F0FBFB594601A801F0C0FAD0B90026C7
:1011A0000CE00A2000F040FF0321902000F0F2FF45
:1011B00010B14FF0010A04E0701C86B2B6F5967FBC
:1011C000EFDB00BFBAF1000F04D0214662A000F0AF
:1011D00077FC27E06848009009F10100C0B2814621
:1011E000024666480388214665A000F069FC601C41
:1011F000C0B20446032800DB00246FA000F060FCAE
:1012000032221AA14EA001F009FA01F0BDFB01F053
:1012100053FA10B16FA000F053FC4FF4FA7000F0D5
:1012200003FF9EE700BF51B0BDE8F08F5B6E6574B1
:101230005D20696E697420657370383236362E2EE3
:101240002E0D0A000D0A00005B6E65745D2077614B
:101250006974696E6720657370383236362E2E2EAB
:101260000D0A00004F4B000041540D0A0000000021
:1012700041542B5253540D0A000000004154453094
:101280000D0A000041542B4349504D55583D300D37
:101290000A00000041542B4349504D4F44453D3016
:1012A0000D0A000041542B43574D4F44455F4355B1
:1012B000523D310D0A00000041542B43574A415022
:1012C0003D222573222C222573220D0A00000000E6
:1012D0005B6E65745D206A6F696E20617020726557
:1012E0007472792025750D0A00000000474F5420C4
:1012F000495000005B6E65745D2077696669204F18
:101300004B0D0A005B6E65745D206D717474206C0A
:101310006F67696E204F4B0D0A0000005B6E6574AD
:101320005D206D717474206C6F67696E20726574D6
:1013300072792025752028723D2575290D0A000037
:1013400041542B434950434C4F53450D0A00000074
:1013500024000020004800405B6E65745D207375BA
:1013600062736372696265204F4B202863616E640B
:10137000202575290D0A0000640000200A000020C5
:101380005B6E65745D20737562736372696265205C
:1013900063616E64202575207265747279202575ED
:1013A0002C206970643D257520726573703A252E76
:1013B0003430730D0A0000005B6E65745D206C694B
:1013C0006E6B207265636F766572792E2E2E0D0A14
:1013D000000000005B6E65745D2072652D6C6F67A8
:1013E000696E206661696C2C2077696C6C2072656F
:1013F0007472790D0A00000010B5054803680548AD
:1014000002680548016805A000F05AFB10BD000005
:101410001800002014000020100000205B6E65748E
:101420005D2073746174732072783D256C75206F34
:1014300072653D256C75206970643D256C750D0ADB
:10144000000000002DE9F04FFFB004460D4616469F
:101450001F460A2095FBF0F100FB115895FBF0F9AF
:1014600094FBF0F100FB114A94FBF0FB8898002EEE
:1014700001DA002100E031465B460F4ACDE900A9C0
:10148000CDE90281CDE90470C0214FA800F028FB0E
:101490004FAA0A4907A8FFF7E2FB8046414607A882
:1014A00001F03CF930B106A000F00AFB01207FB04A
:1014B000BDE8F08F0020FAE7802E00083C2E0008DF
:1014C0005B6E65745D207075626C6973682066611F
:1014D000696C0D0A000000007047000029B1064A3F
:1014E00012680243044B1A6004E0034A1268824304
:1014F000014B1A60704700003038024029B1064A9B
:1015000012680243044B1A6004E0034A12688243E3
:10151000014B1A60704700004038024029B1064A6A
:1015200012680243044B1A6004E0034A12688243C3
:10153000014B1A607047000044380240F0B50021AA
:1015400000220024022500260223324F3F6807F0C4
:101550000C0121B1042905D0082937D105E02E4F0F
:10156000076036E02D4F076033E02A4F3F1F3F688A
:10157000C7F38056274F3F1F3F6807F03F036EB108
:10158000264FB7FBF3F7DFF88CC0ACF1040CDCF8A6
:1015900000C0CCF3881C07FB0CF40CE01E4FB7FB1B
:1015A000F3F7DFF870C0ACF1040CDCF800C0CCF34A
:1015B000881C07FB0CF4174F3F1F3F68C7F3014718
:1015C0007F1C7D00B4FBF5F7076002E0124F076057
:1015D00000BF00BF0F4F3F6807F0F0010909104F2F
:1015E0007A5C0768D74047600A4F3F6807F4E051CC
:1015F000890A0B4F7A5C4768D7408760054F3F6880
:1016000007F46041490B064F7A5C4768D740C760D2
:10161000F0BD0000083802400024F40000127A00F7
:1016200038000020704700000CB5002001900090A9
:101630003448006840F480303249086000BF3148C7
:10164000006800F4003000900198401C0190009860
:1016500018B90198B0F5A04FF1D12A48006800F4FC
:10166000003010B10120009001E0002000900098AF
:10167000012846D123484030006840F0805021497D
:10168000403108602048006840F440401E4908602E
:101690001C48083000681B4908310860084600688B
:1016A00040F4004008600846006840F4A05008601C
:1016B0001648091F0860081F006840F08070091F65
:1016C000086000BF0F48006800F000700028F9D0E3
:1016D00040F205700E4908600A480830006820F0A2
:1016E00003000849083108600846006840F002001D
:1016F000086000BF03480830006800F00C000828AC
:10170000F8D10CBD0038024000700040085440077A
:10171000003C024002480068401C014908607047D4
:101720000000002010B51548006840F4700013490F
:1017300008601348006840F001001149086000206B
:101740000F49083108600E4800680E4908400C49EE
:1017500008600D48091D0860081F006820F48020FB
:10176000091F0860002006490C310860FFF75CFF84
:101770004FF0006001498039086010BD88ED00E03D
:1017800000380240FFFFF6FE1030002421B102882D
:1017900042F08002028004E002884FF67F731A4014
:1017A0000280704721B1028842F00102028004E009
:1017B00002884FF6FE731A400280704731B1B0F8CC
:1017C000442042F40042A0F8442005E0B0F8442050
:1017D000C2F30E02A0F844207047000070B5002448
:1017E00000220023058C4FF6FE7635400584028CDE
:1017F0008388048B4FF68F752C40B51E2C400D88C6
:101800002C43751E2A408D892A434D882A43104D4A
:10181000A84202D00F4DA84213D14FF6F7752A40C7
:10182000CD892A434FF6FB752A408D882A434FF60F
:10183000FF652B404FF6FF552B400D8A2B434D8AF9
:101840002B43838004838D684563028470BD000050
:1018500000000140000401400A460021018B4FF6C0
:10186000F7731940114301837047416370470000CB
:1018700000220288184B98420ED0184B98420BD089
:10188000B0F1804F08D0164B984205D0154B9842C6
:1018900002D0154B984204D14FF68F731A404B88F3
:1018A0001A43124B984207D0114B984204D04FF67E
:1018B000FF431A400B891A4302804B68C3620B88AE
:1018C0000385054B984202D0044B984201D18B7A94
:1018D0000386012383827047000001400004014019
:1018E0000004004000080040000C004000100040D0
:1018F0000014004010B5FEF7C9FF10BD10B5FEF78B
:101900006DFE10BD21B1828942F40052828104E053
:1019100082894DF6FF731A4082817047024600208B
:10192000B1F5007F00D100BF13880B400BB101203F
:1019300000E00020704770B5024600240023002517
:10194000002040F66A16B14200D100BFC1F3421533
:1019500001F01F03012606FA03F3012D02D1968937
:10196000334006E0022D02D1168A334001E0968A08
:1019700033400C12012606FA04F41688344013B1E1
:101980000CB1012000E0002070BDF0B5034600243A
:1019900000260025002040F66A17B94200D100BF9A
:1019A0001846C1F3421401F01F06012707FA06F595
:1019B000012C01D10C3004E0022C01D1103000E0E8
:1019C00014301AB107682F43076002E00768AF437D
:1019D0000760F0BD2DE9FF4705460E460024A146ED
:1019E00000BFA046B08900B100BF2C8A24F4405447
:1019F000F08804432C82AC8941F20C608443B088A7
:101A000031890843718908430443AC81AC8A24F4CA
:101A10004074B0890443AC826846FFF78FFD2048CC
:101A2000854202D01F48854202D1DDF80C9001E0CA
:101A3000DDF80890A88900F4004040B109EBC90026
:101A400000EB091031684900B0FBF1F707E009EB42
:101A5000C90000EB091031688900B0FBF1F7642080
:101A6000B7FBF0F004012009642101FB1078A8897C
:101A700000F4004040B1322000EBC800B0FBF1F0B0
:101A800000F00700044308E0322000EB0810642156
:101A9000B0FBF1F000F00F0004432C81BDE8FF879C
:101AA000001001400014014001468888C0F308007E
:101AB0007047C1F308028280704700BFFEE7000054
:101AC0000FB4054B10B503A9044A029800F036F88C
:101AD00010BC5DF814FB0000452100085C000020EC
:101AE0000FB47CB50C0009AD01D0611E00E00021EF
:101AF000CDE90001064B6A462946089800F01EF819
:101B0000002C02D0009A002111707CBC5DF814FBFF
:101B1000931F0008004870476000002002E008C8DA
:101B2000121F08C1002AFAD170477047002001E057
:101B300001C1121F002AFBD1704700002DE9FF4FA1
:101B40008DB00F460546002606E025280BD0DDE9BE
:101B50000F1290476D1C761C28780028F5D111B023
:101B60003046BDE8F08F0024A246A1460122E94993
:101B700000E0044315F8013F203B02FA03F008425D
:101B8000F7D128782A2810D06FF02F022878A0F1FA
:101B90003001092914D80AEB8A0102EB410144F013
:101BA000020400EB010A6D1CF0E701CF5FEA000AB6
:101BB00003D544F40054CAF1000A44F002046D1C39
:101BC00028782E2817D115F8010F44F004042A288C
:101BD0000ED06FF02F022878A0F1300109290AD821
:101BE00009EB890102EB410100EB01096D1CF2E7F1
:101BF00057F8049B6D1C28786C280FD006DC4C2805
:101C000017D068280DD06A2814D104E0742810D0A9
:101C10007A280FD10DE044F400140AE044F4801453
:101C200001E044F440146978814202D104F5801443
:101C30006D1C6D1C28786E281ED00CDC632830D0FB
:101C400004DC00288BD0582811D19FE0642867D08D
:101C500069280CD164E073282DD004DC6F2872D081
:101C6000702804D194E075286ED078286DD0DDE915
:101C70000F129047761C4BE1C4F30250022806D0A5
:101C8000032809D0042801CF09D0066040E101CF24
:101C9000F117C0E900613BE101CF068038E1067031
:101CA00036E117F8040B8DF8000000208DF80100D4
:101CB000EB46012003E057F804BB4FF0FF3061070B
:101CC0004FF0000102D40DE008F1010188464945BA
:101CD0000FDA8045F8DB1BF808100029F4D108E082
:101CE00008F1010188468142FADB1BF8081000293F
:101CF000F6D1DDE90F23AAEB08008146214600F06A
:101D000031F9304400EB080604E0DDE90F121BF85E
:101D1000010B9047B8F10108F7D221464846F2E09E
:101D20000A21C4F302524FF0000B0891022A04D09A
:101D300001CFC117032A09D00AE0FF1D27F00707CA
:101D4000F7E8020108E02CE01EE01FE000B2C11736
:101D5000042A01D140B2C117021E71F1000206DA55
:101D60000023D0EB030063EB01012D2202E02205EA
:101D700004D52B228DF82420012203E0E20701D0B4
:101D80002022F7E7904653E00A210BE0102109E0FA
:101D900010214FF0000B44F004044FF008090891A3
:101DA00003E008214FF0000B0891C4F30252022A0D
:101DB00004D001CF0021032A06D006E0FF1D27F042
:101DC0000707F7E8020103E080B2042A00D1C0B29D
:101DD0004FF0000822072BD52A78702A07D0DDF8AB
:101DE00020C08CF0100C5CEA0B0C05D00EE04022F9
:101DF0008DF82420012208E050EA010306D03023A8
:101E00008DF824308DF8252002229046089B83F01F
:101E1000080353EA0B030BD150EA010201D1620718
:101E200006D530228DF824204FF00108A9F10109D0
:101E30002A78582A04D038A20B9208AA0A920BE0FA
:101E40003AA2F9E75B46089AFEF70BFA0B9B9B5CFC
:101E50000A9A521E0A92137050EA0102F2D10A98AD
:101E6000ADEB000000F1200B600702D524F48034B4
:101E700001E04FF00109D94502DDA9EB0B0000E0BC
:101E8000002000EB0B0141440890AAEB010AE0039B
:101E900006D4DDE90F232146504600F063F80644DE
:101EA0004FF0000908E009A911F80900DDE90F1257
:101EB000904709F10109761CC145F4DBE0030CD51C
:101EC000DDE90F232146504600F04CF8064404E0BB
:101ED000DDE90F1230209047761C0899481E0890C3
:101EE0000029F5DC08E00A980A990078491C0A9153
:101EF000DDE90F129047761CBBF10001ABF1010B3D
:101F0000F1DC21465046DDE90F2300F019F80644C4
:101F10006D1C21E609280100303132333435363763
:101F20003839616263646566000000003031323325
:101F300034353637383941424344454600000000C5
:101F40002DE9F041044600251E461746880404D4B6
:101F500005E039462020B0476D1C641EF9D528469F
:101F6000BDE8F0812DE9F041044600251E4690466B
:101F7000C80301D5302700E02027880404D505E0F8
:101F800041463846B0476D1C641EF9D52846BDE869
:101F9000F0814A68002A06D00A68531C0B60107052
:101FA0004868401E4860704700B587B00121084668
:101FB000FFF794FA01211020FFF7B0FA0722092158
:101FC0001748FEF719FC07220A211548FEF714FCF2
:101FD0004FF4C060059002208DF8180000208DF8A5
:101FE0001A0001208DF81B0005A90D48FEF7BCFB67
:101FF0004FF4E13001900020ADF80800ADF80A0080
:10200000ADF80C000C20ADF80E0001A90548FFF753
:10201000E1FC01210348FFF775FC07B000BD00009B
:10202000000002400010014010B5044603E04FF4E8
:102030007A7000F005F8201EA4F10104F7D110BD5C
:1020400010B5084B5968084B1B68084CB3FBF4F3F8
:1020500003FB00F200BF034B5B685B1A9342FAD3A9
:1020600010BD0000001000E04800002040420F00BA
:1020700070B5002400251DE04FF4FA71012000F036
:102080001FF808B1FF2070BD2820FFF7D9FF6006B8
:10209000040E02210948FEF7D2FB08B144F0010406
:1020A0004FF4FA71002000F00BF808B1FF20EAE7C6
:1020B000681CC5B2082DDFDB2046E4E700000240C3
:1020C00070B504460D4605E0281EA5F1010501D1B5
:1020D000012070BD02210348FEF7B1FBA042F3D1FD
:1020E0000020F6E70000024070B50546402D01DAF9
:1020F000284600E040200646294609A0FFF7E0FCFC
:10210000002406E00B48015D0BA0FFF7D9FC601C22
:1021100084B2B442F6DB0AA0FFF7D2FC70BD000027
:102120005B6E65745D20495044286C656E3D257575
:10213000293A200064020020253032582000000097
:102140000D0A000070B504460D46E1B20548FFF7E0
:10215000B0FC00BF80210348FFF7E0FB0028F9D066
:10216000204670BD00100140002005490880054947
:1021700008700549087005490880054908807047BE
:102180000A0000201C0000201D0000201E0000206E
:10219000200000202DE9F04105460E4600270022D0
:1021A00040F225511048FFF7F0FB00240CE00F48E7
:1021B000005DA84206D10D49601C085CB04201D107
:1021C000012706E0601C84B2601C09490988884226
:1021D000EDDB00BF012240F225510348FFF7D5FB9C
:1021E0003846BDE8F081000000480040640200204D
:1021F0000A0000201CB501211120FFF76FF9002013
:102200008DF804001020009001208DF80700694629
:102210000648FEF7A9FA0120009002208DF8070079
:1022200069460348FEF7A0FA1CBD000000100240FA
:10223000000002408EB000200D900C900B900A9090
:102240000990089007900127FFF7AEFE012108468C
:10225000FFF744F93802059001208DF8180000209E
:102260008DF81A008DF81B008DF8190005A99B4800
:10227000FEF77AFA00240FE04FF480719748FEF7DA
:10228000E7FA0020049002E00498401C049094496E
:1022900004988842F8D3641C062CEDDBFEF78AF91B
:1022A000904800684FF47A72B0FBF2F1481EB0F12A
:1022B000807F00D31BE0481E4FF0E0225061501792
:1022C0000F22002804DB13071C0E874B1C5406E06A
:1022D00013071D0E854B00F00F04241F1D5500BF72
:1022E00000204FF0E02290610720106100BF80A025
:1022F000FFF7E6FBFFF77EFFFEF78CFBFEF7D4F857
:102300004FF4E130FEF730FB84480078FEF7D8FB4D
:1023100001208349087083A185A0FEF787FE4FF056
:1023200000080026D9E0834804680D98201AB0F50B
:10233000FA6F2ED30D940AA90BA8FEF7D9F883469D
:10234000BBF1000F20D19DF828000A2190FBF1F28B
:1023500001FB120004909DF8280090FBF1F003901F
:102360009DF82C0090FBF1F201FB120002909DF809
:102370002C0090FBF1F00190049800906EA001A950
:102380000EC9FFF79DFB03E0594670A0FFF798FBCD
:1023900000BFFEF775FA0546002D06DB07952946B6
:1023A00079A0FFF78DFBFEF75FFA10217948FEF761
:1023B00046FA08B9012000E0002081460121474883
:1023C000FEF73DFA012800D100E000208246B9F175
:1023D000000F12D0099880B95148007808B901203F
:1023E00000E000204E490870097811B14B49097886
:1023F00000E000210846FEF763FBCDF82490BAF117
:10240000000F17D00898A8B9781CC11700EB91717C
:102410008910A0EB8101CFB25F48C05D3F490870D1
:102420003F48007810B901203D4908703B480078CA
:10243000FEF746FBCDF820A03948007806903748D3
:102440000078059005A906A8FEF7AEFCC0B19DF87E
:102450001800334908709DF814003049087030495D
:10246000097811B12D49097800E000210846FEF7EE
:1024700027FB2A4802782A48017848A0FFF720FB6A
:10248000A4EB080047F23051884206D3A046FEF77D
:10249000C3FD3044C6B2FEF7AFFF0C98201A41F2DC
:1024A0008831884209D30C949DF828109DF82C009F
:1024B000079A00F059FB3044C6B2032E0CDB00260D
:1024C0003EA0FFF7FDFA17A119A0FEF7AFFD1948CE
:1024D000D0F8008000680C9000BF24E700000240A4
:1024E00060E316004800002000E400E018ED00E082
:1024F0000D0A3D3D3D2070657374206D6F6E6974EB
:102500006F7220626F6F742028636C6F7564207621
:10251000657229203D3D3D0D0A00000005000020A8
:10252000040000206C697169353333340000000009
:102530007878710000000020543D25752E25752007
:10254000483D25752E25750D0A0000005B44485452
:1025500031315D206572723D25752028312F322F73
:10256000333DE697A0E5BA94E7AD94E69FA5E68EE5
:10257000A5E7BABF2C20343DE6A0A1E9AA8CE994D6
:1025800099290D0A00000000706573743D25640DE3
:102590000A00000000100240502C0008636C6F75A8
:1025A0006420636D64202D3E206F6E3D2575206292
:1025B00072696768743D25750D0A00005B6E65746D
:1025C0005D206C696E6B20646561642C2066756C9F
:1025D0006C207265636F6E6E6563742E2E2E0D0A0D
:1025E0000000000030B5034600BF1846DD1703EBBE
:1025F0005565ED11A3EBC515ECB2DD1703EB556581
:10260000C5F3CF13002B01DD44F080041046551CA8
:10261000EAB20C54002BE8DC104630BD2DE9F04145
:1026200004460D46164600F081FA204600F090F967
:1026300000271CE00A20FFF7F7FC00F081FA287859
:1026400048B911480088002804DD00F06FFA002026
:10265000BDE8F08109E029460C48FDF7C5FD18B139
:1026600000F064FA0020F3E700BF781C87B2B7429D
:10267000E0DB00F065FA054B03480288214604A020
:10268000FFF71EFA0120E3E70800002064000020A5
:102690005B41542D4641494C5D20252E323073203C
:1026A0007C206C656E3D257520726573703A252E11
:1026B0003630730D0A00000030B5C1B001A8FEF736
:1026C00015FA0546002240F225511348FFF75DF93F
:1026D000FFF74AFD012240F225510F48FFF755F957
:1026E000294601A800F01AF810B1012041B030BD10
:1026F00000240BE00A20FFF797FC02212020FFF7BF
:1027000049FD08B10020F1E7601C84B2B4F5967F62
:10271000F0DB0220EAE70000004800402DE9F0412C
:1027200086B007460D4600262B463FA21821684674
:10273000FFF7D6F900BF4FF0000800F0F7F9684640
:1027400000F006F900241FE00A20FFF76DFC00F0FE
:10275000F7F93E213848FDF759FD10B14FF0010857
:1027600015E036A13448FDF73FFD00B10FE035A17B
:102770003148FDF739FD20B934A12F48FDF734FD6C
:1027800000B104E0601C84B2B4F5967FDCDB00BFCE
:10279000B8F1000F12D1284A29462EA0FFF790F970
:1027A000701CC0B20646052803DB012006B0BDE858
:1027B000F0814FF49670FFF737FCBCE729463846A6
:1027C00000F076F800F0B2F9002418E00A20FFF7D4
:1027D0002BFC00F0B5F929A11748FDF705FD08B15C
:1027E0000020E3E717A11448FDF7FEFC20B917A16C
:1027F0001148FDF7F9FC00B104E0601C84B2B4F5A7
:10280000967FE3DB00BF0C4A29461EA0FFF758F96C
:10281000701CC0B20646032801DB0120C6E74FF456
:102820009670FFF701FC86E741542B43495053450E
:102830004E443D25750D0A006400002062757379D1
:10284000000000004552524F52000000434C4F53CD
:10285000454400005B6D7174742D74785D206E6F5B
:1028600020273E27206C656E3D25752072657370AC
:102870003A252E3430730D0A0000000053454E44B3
:10288000204F4B005B6D7174742D74785D206E6FFA
:102890002053454E44204F4B2C206C656E3D2575D2
:1028A00020726573703A252E3430730D0A000000D3
:1028B00070B504460D460BE014F8011B0B48FFF7FA
:1028C000F8F800BF80210948FFF728F80028F9D060
:1028D000281EA5F101018DB2EED100BF40210348B1
:1028E000FFF71CF80028F9D070BD00000048004038
:1028F00070B5DEB0044614220EA101A8FDF762FCFB
:102900001CB1207808B1204600E00FA005462B46F8
:102910000E4AA02106A8FFF7E3F801AA06A92EA8EF
:10292000FEF79DF9064631462EA8FFF7F7FE5EB08A
:1029300070BD00007B22726573756C745F636F6499
:1029400065223A307D00000030000000EC2D0008C8
:1029500010B504460BE014F8011B0A48FFF7A9F86C
:1029600000BF80210748FEF7D9FF0028F9D0207862
:102970000028F0D100BF40210248FEF7CFFF002819
:10298000F9D010BD0048004070B5A2B0002540F25B
:102990005B702FA33DA28021009002A8FFF7A0F852
:1029A00000BF002600F0C2F802A8FFF7D1FF002404
:1029B00027E00A20FFF738FB00F0C2F83AA13C48B4
:1029C000FDF712FC30B13BA13948FDF70DFC08B111
:1029D000012619E038A13648FDF706FC70B938A188
:1029E0003348FDF701FC48B937A13148FDF7FCFB3E
:1029F00020B937A12E48FDF7F7FB00B104E0601CB9
:102A000084B2B4F5FA7FD4DB00BF2EB132A0FFF759
:102A100057F8002022B070BD33A12548FDF7E4FB34
:102A200048B1322218A135A0FFF7F8FD4FF4967097
:102A3000FFF7FAFAB5E7681CC0B2054601461C4A22
:102A400032A0FFF73DF84FF47A70FFF7EDFAA8E7F0
:102A5000373062646466323534322E7374312E69D5
:102A60006F7464612D6465766963652E636E2D6E87
:102A70006F7274682D342E6D79687561776569633E
:102A80006C6F75642E636F6D0000000041542B4322
:102A9000495053544152543D22544350222C222534
:102AA00073222C25750D0A00434F4E4E45435400AA
:102AB000640000204F4B00004641494C00000000DC
:102AC0004552524F52000000434C4F5345440000C2
:102AD00062757379000000005B6E65745D2074633D
:102AE00070204F4B0D0A0000414C52454144592083
:102AF000434F4E4E454354454400000041542B4340
:102B00004950434C4F53450D0A0000005B6E6574FD
:102B10005D20746370207265747279202575202899
:102B2000252E343073290D0A0000000000200249D0
:102B300008800249087070470800002064000020E7
:102B400007490988B1F5007F02DA0549098801E0E3
:102B500040F2FF1108460021024A1154704700005C
:102B60000800002064000020F8B505460E46144613
:102B7000074800780090002C01DA002000E0204691
:102B800002460448037831462846FEF75BFCF8BD50
:102B9000050000200400002010B588B00446012183
:102BA0000220FEF79BFC01218804FEF7A7FC072208
:102BB0000A212548FDF720FE07220B212248FDF7B8
:102BC0001BFE4FF44060069002208DF81C00002090
:102BD0008DF81E0001208DF81F0002208DF81D00C9
:102BE00006A91948FDF7C0FD02940020ADF80C00BD
:102BF000ADF80E00ADF81000ADF814000C20ADF8E3
:102C0000120002A91148FEF7E5FE012240F225510B
:102C10000E48FEF7BAFE01210C48FEF773FE27208E
:102C20008DF8040002208DF8050001208DF80600C3
:102C30008DF8070001A8FEF77BF84FF4FA70FFF754
:102C4000F3F908B010BD0000000402400048004045
:102C500019324B642B4950442C0000404040404006
:102C6000404040404141414141404040404040405F
:102C70004040404040404040404040050202020287
:102C8000020202020202020202020220202020208E
:102C90002020202020020202020202029090909046
:102CA0009090101010101010101010101010101024
:102CB0001010101010100202020202028888888888
:102CC0008888080808080808080808080808080884
:102CD0000808080808080202020240005B2C0008ED
:102CE0005B44485431315D2069646C653D25642046
:102CF00028313DE680BBE7BABFE6ADA3E5B8B8E84A
:102D0000A2ABE4B88AE68B892C20303DE7BABFE657
:102D1000B2A1E68EA5E5AFB92FE6A8A1E59D97E59E
:102D20009D8F290D0A000000246F632F646576696A
:102D30006365732F3661383363613966636262306D
:102D40006366366262393761353762305F73686552
:102D50006265692F7379732F636F6D6D616E647334
:102D60002F230000246F632F646576696365732FDA
:102D70003661383363613966636262306366366236
:102D800062393761353762305F7368656265692F14
:102D90007379732F636F6D6D616E64732F726571DC
:102DA000756573745F69643D2B000000246F632FA9
:102DB000646576696365732F36613833636139669C
:102DC000636262306366366262393761353762301A
:102DD0005F7368656265692F7379732F6D657373AF
:102DE000616765732F646F776E000000246F632F37
:102DF000646576696365732F36613833636139665C
:102E000063626230636636626239376135376230D9
:102E10005F7368656265692F7379732F636F6D6D7A
:102E2000616E64732F726573706F6E73652F726558
:102E300071756573745F69643D257300246F632F3A
:102E4000646576696365732F36613833636139660B
:102E50006362623063663662623937613537623089
:102E60005F7368656265692F7379732F70726F7015
:102E70006572746965732F7265706F7274000000FB
:102E80007B227365727669636573223A5B7B22737A
:102E90006572766963655F6964223A226D7964655B
:102EA0007461222C2270726F70657274696573226E
:102EB0003A7B2274656D70223A25752E25752C2279
:102EC00068756D69223A25752E25752C22706573FB
:102ED0007473223A25642C226C616D705F6F6E22D0
:102EE0003A25752C226272696768746E6573732265
:102EF0003A25757D7D5D7D00346434656464656369
:102F00006534633731323261326439336235356466
:102F10003437633032393039646633336333643382
:102F200031383932373832646565303336393233C7
:102F30006431366564656461000000005C2F000840
:102F400000000020640000001C1B0008C02F0008C7
:102F500064000020140800002C1B00080000000082
:102F6000003C000000000000000000000000000025
:102F70000000000000000000000000000000000051
:102F8000282D0008642D0008AC2D0008FFFFFFFF6E
:102F9000000000000000000001020304010203041D
:102FA00006070809007A030A00000000000000007C
:102FB00001020304060708090000000000000000E9
:040000050800018965
:00000001FF
